:100000000C9434000C9451000C9451000C94510049
:100010000C9451000C9451000C9451000C9451001C
:100020000C9451000C9451000C9451000C9451000C
:100030000C9451000C9451000C9451000C945100FC
:100040000C9451000C9451000C9451000C945100EC
:100050000C9451000C9451000C9451000C945100DC
:100060000C9451000C94510011241FBECFEFD8E026
:10007000DEBFCDBF11E0A0E0B1E0E0E9F3E002C0F7
:1000800005900D92A431B107D9F721E0A4E1B1E0C8
:1000900001C01D92A631B207E1F70E948C010C94B9
:1000A000C6010C9400008AB18F608AB98AB18F7042
:1000B0008AB90895CF93DF93CDB7DEB766970FB6B1
:1000C000F894DEBF0FBECDBF83E0898382E08A83D0
:1000D00081E08B831C8280E1E4E0F1E0DE01159693
:1000E00001900D928A95E1F71E8A1D8A8D899E895D
:1000F00004970CF04AC03FEF41E050E03BB9ED8976
:10010000FE892BB181E090E08C0F9D1FE80FF91F55
:10011000CA01008002C0880F991F0A94E2F78095F7
:10012000909582238BB98FE39CE90197F1F700C08A
:1001300000004F9906C0ED89FE89EC0FFD1F8581F7
:1001400025C04E9906C0ED89FE89EC0FFD1F818503
:100150001DC04D9906C0ED89FE89EC0FFD1F8585F8
:1001600015C04C9906C0ED89FE89EC0FFD1F8189F1
:100170000DC08D899E8901969E8B8D8B8D899E8960
:1001800004970CF4BBCF80E001C080E066960FB608
:10019000F894DEBF0FBECDBFDF91CF91089580915F
:1001A000140190911501019690931501809314010B
:1001B0000E945A0090910001891339C00E945A0090
:1001C0008111FCCF0E945A008823E1F30E945A005B
:1001D0009091010189132BC00E945A008111FCCF1C
:1001E0000E945A008823E1F30E945A009091020174
:1001F00089131DC00E945A008111FCCF0E945A0031
:100200008823E1F30E945A009091030189130FC0E3
:100210002D9810921501109214012FEF8BE792E99F
:10022000215080409040E1F700C000002D9A0895D1
:100230000E945A008823F1F10E945A008093000125
:100240000E945A008111FCCF0E945A008823E1F3DA
:100250000E945A00882371F10E945A008093010184
:100260000E945A008111FCCF0E945A008823E1F3BA
:100270000E945A008823F1F00E945A0080930201E4
:100280000E945A008111FCCF0E945A008823E1F39A
:100290000E945A00882371F00E945A008093030143
:1002A0002D9A2FEF81EE94E0215080409040E1F7AD
:1002B00000C000000895E0E0F1E085E4808380E282
:1002C0008183828383832FEF81EE94E021508040ED
:1002D0009040E1F700C00000089587E090E0E8E872
:1002E000F0E024EF31E0318320834FEF59E668E1FD
:1002F000415050406040E1F700C000001182108280
:100300004FEF59E668E1415050406040E1F700C0CE
:100310000000019741F70895219AE0E8F0E080811C
:1003200080688083808183608083E1E8F0E0808161
:1003300082608083C0E0D1E00E9453001F9B0E9436
:100340005B018881853471F42D9A2FEF89E698E15D
:10035000215080409040E1F700C000002D980E949D
:100360001801EACF0E945A00882331F30E94CF007F
:10037000809114019091150184369105E9F60E944F
:100380006D011092150110921401D6CFF894FFCF91
:100390004500000031323341343536423738394375
:0403A0002A30234498
:00000001FF
